:040000000200413287
:01000B0032C2
:0100130032BA
:01001B0032B2
:0100230032AA
:01002B0032A2
:01003300329A
:03003B000200C2FE
:14009A00E4F508F509F50AF50BF50CF50DF50EF50F02003E2A
:03003E000200AE0F
:2000AE001201DA1202A512020190000175F0001202EE80FEC021C0E0C0F0C082C083C00784
:2000CE00C006C005C004C003C002C001C000C0D075D000AE0AAF0BC3E49EFEE49FFF900021
:2000EE000DE0FCA3E0FDC3EC9EED9F506090000FE0F512A3E0F5138E828F83C007C006122E
:20010E0003F5AC82AD83D006D007C3EC94C8ED94005035050EE4B50E02050F7402B50E06AE
:20012E00E4B50F028002802085082285092390000175F000C007C006120429E582D006D0B6
:20014E00076005E4F50EF50FE4F508F509C3E5089443E50994004009E4F508F509F50EF532
:20016E000FAC08AD090508E4B508020509EC2CFCED33FDEC240FF582ED3400F583EEF0EF0D
:20018E00A3F0E4F50AF50BF50CF50DD0D0D000D001D002D003D004D005D006D007D083D079
:0801AE0082D0F0D0E0D0213234
:2001B600758D00758B00D28EAF8D7E00AC8B7D00EC2EFEED3FFFC3EE9480EF648094BE40EC
:2001D600E7C28E22438E1053890F438910C28E22AE82AF83EE4F6012C007C0061201B6D05F
:0B01F60006D0071EBEFF011F80EA229A
:2002010043C42053C4F885C4C4539CFD75C6FF75C5CC43C40853877FD28653B1BF43B240B6
:20022100D28753B17F53B27F5387BFC29FD29ED29C22858299758202120281E58260F67503
:20024100820202027BAD82AE83AFF08D828E838FF01207C6FC60188C820DBD00010EC007FB
:20026100C006C005120233D005D006D00780DC2285998222D2AC22C2AC22E582F452982252
:20028100E58255986004758201227582002285821085831190001075F0401202468510828C
:0402A100851183221E
:2002A50053B3DF43B420C29553B3FE43B401C29053B3FD43B402C29153B1FE43B2FEC28012
:2002C50053B1FD43B2FDC28153B1FB43B2FBC28253B1F743B2F7C28353B1EF43B2EFD28457
:0902E50053B3FB43B4FBD2922297
:2002EE00AD82AE83AFF0E412078EA312078EA312078EA312078E74042DFAE43EFB8F048AAF
:20030E00828B838CF0E412078EA312078E74062DFAE43EFB8F048A828B838CF0E412078E7C
:20032E00A312078E74082DFAE43EFB8F048A828B838CF0E412078EA312078E740A2DFAE41E
:20034E003EFB8F048A828B838CF0743C12078EA3E412078E740C2DFAE43EFB8F048A828BBA
:20036E00838CF074CC12078EA3741012078E74942DFAE43EFB8F048A828B838CF074FF12C1
:20038E00078EA312078E8D828E838FF0E412078EA312078EA312078EA302078E1207C6FD9C
:2003AE00A31207C6FEA31207C6FFA31207C6FCED4E4F4CB401009200B3E433F58222E4123A
:2003CE00078EA312078EA312078EA302078E1207C6FDA31207C6FEA31207C6FFA31207C64D
:2003EE008D828E838FF022AE82AF83EEC39512FCEF9513FDC3E49C74808DF063F08095F0D8
:20040E00500BEEC39512FCEF9513FD8009E512C39EFCE5139FFD8C828D83228582248583A7
:20042E002585F026E4F527F528F529F52A9007E993F89007E8E493F52FC39850028002A898
:20044E002F8812751300740E2524F8E43525FEAF2688828E838FF01207C6F8A31207C6FE78
:20046E0088828E8312076585822B85832C740A2524F8E43525FCAD2688828C838DF01207F4
:20048E00C6F8A31207C6FC88128C13852B82852C831207A975126475130012076585822D8C
:2004AE0085832E7B01740E2524F8E43525F9AA26883089318A32883389348A35E52224FF23
:2004CE00F536E52334FFF5378B047D00C3EC9536ED953740030206EEE5272527F527E52883
:2004EE0033F528E52933F529E52A33F52AEB2B28FCE439FD8A078C828D838FF01207C6FC81
:20050E00A31207C6FD9007EAE493FF8F12751300852B82852C83C005C004C003C002C001F9
:20052E00C0001207A9858212858313D000D001D002D003D004D0058C828D83C003C002C0A5
:20054E0001C0001203F5AE82AF83D000D001D002D003C3EE952DEF952E40030205EB8B062F
:20056E007F000EBE00010FEE2EFEEF33FFEE28FEEF39FF8A058E828F838DF01207C6FEA3EE
:20058E001207C6FF9007EBE493FD8D12751300852B82852C83C007C006C003C002C001C059
:2005AE00001207A9858212858313D000D001D002D003D006D0078E828F83C003C002C001DC
:2005CE00C0001203F5AE82AF83D000D001D002D003C3EE952DEF952E50030206E5EB2B25FB
:2005EE0030FFE43531FEAD328F828E838DF01207C6FFA31207C6FE9007ECE493FD8D12758F
:20060E001300852B82852C83C007C006C003C002C001C0001207A9858212858313D000D02A
:20062E0001D002D003D006D0078F828E83C003C002C001C0001203F5AE82AF83D000D00124
:20064E00D002D003C3EE952DEF952E40030206E18B067F000EBE00010FEE2EFEEF33FFEE81
:20066E002533FEEF3534FFAD358E828F838DF01207C6FEA31207C6FF9007EDE493FD8D1249
:20068E00751300852B82852C83C007C006C003C002C001C0001207A9858212858313D00005
:2006AE00D001D002D003D006D0078E828F83C003C002C001C0001203F5AE82AF83D000D0D5
:2006CE0001D002D003C3EE952DEF952E50054327018004758200228B0774022FFB0204D6D6
:2006EE00C374079522E4952350698524828525838526F0E52712078EA3E52812078EA3E51D
:20070E002912078EA3E52A12078E74042524FDE43525FEAF26E52224FFFBE52334FFC3139D
:20072E00CB13CBFC8D828E838FF0EB12078EA3EC12078E74062524FDE43525FEAF268D82BF
:17074E008E838FF0E52B12078EA3E52C12078E7582012275820022BF
:0807E6005E01011F0103030184
:200765007A10E4FBFCE58225E0F582E58333F583EB33FBEC33FCEB9512F5F0EC9513400694
:09078500FCABF0438201DADD2235
:06007000E478FFF6D8FD64
:20004E007900E94400601B7A009007EE789F75A000E493F2A308B8000205A0D9F4DAF275C5
:02006E00A0FFF1
:1B078E0020F71130F6138883A88220F509F6A8837583002280FEF280F5F0226A
:1D07A900E5828512F0A4C582C0F08513F0A4D0F025F0C5838512F0A42583F58322F4
:200076007800E84400600A790175A000E4F309D8FC789EE84400600C7901900001E4F0A3E9
:04009600D8FCD9FABF
:0D0041007581371207E2E582600302003E80
:1C07C60020F71430F6148883A88220F507E6A88375830022E280F7E49322E02242
:0407E20075820022FA
:00000001FF
