:03000000020006F5
:03005F0002000399
:0300030002014CAB
:10006200AF82D29090000AC0071201C5C2909000E0
:100072000A1201C5D007EF700122EF24EF403B7D49
:10008200007E008F037C00C3ED9BEE64808CF063E6
:10009200F08095F0400122D29390012CC007C00657
:1000A200C0051201C5C29390012C1201C5D005D022
:1000B20006D0070DBD00CC0E80C97D007E008F03E7
:1000C2007C007420C39BFBE49CFCC3ED9BEE64802C
:1000D2008CF063F08095F05023D29190012CC007F0
:1000E200C006C0051201C5C29190012C1201C5D0F3
:1000F20005D006D0070DBD00C50E80C22220921485
:100102009000141201C52092073092FD75820122DF
:100112007582002275820022E580541F641FFF242D
:10012200E040268F057E00C007C005C0067461C08E
:10013200E0740AC0E07480C0E01202FDE58124FB95
:10014200F581D0078F82020062221201B912028465
:100152001201E0E580541FFFC0071200FFE582D0C4
:10016200076007C00712011AD007AD8053051F7E32
:10017200008F037C00EDB50306EEB5040280D99032
:1001820000C81201C5E580541FFFC00712011AD032
:030192000780C51E
:100A610050726F6772616D2025642073656C6563D8
:060A7100746564210A0017
:10019500758D00758B00D28EAF8D7E00AC8B7D008A
:1001A500EC2EFEED3FFFC3EE9480EF648094BE40DD
:1001B500E7C28E22438E1053890F438910C28E22C7
:1001C500AE82AF83EE4F6012C007C006120195D014
:1001D50006D0071EBEFF011F80EA2243C42053C478
:1001E500F885C4C4539CFD75C6FF75C5CC43C408CA
:1001F50053877FD28653B1BF43B240D28753B17F75
:1002050053B27F5387BFC29FD29ED29C22858299CB
:10021500758202120260E58260F675820202025A58
:10022500AD82AE83AFF08D828E838FF0120A41FCD2
:1002350060188C820DBD00010EC007C006C00512F6
:100245000212D005D006D00780DC2285998222D201
:10025500AC22C2AC22E582F4529822E58255986020
:1002650004758201227582002285820885830990A2
:10027500000875F0401202258508828509832253FE
:10028500B3DF43B420C29553B3FE43B401C29053C8
:10029500B3F743B408C29353B3FD43B402C29153B9
:1002A500B1FE43B2FED28053B1FD43B2FDD28153BC
:1002B500B1FB43B2FBD28253B1F743B2F7D28353BA
:1002C500B1EF43B2EFD28453B3FB43B4FBD29222D6
:06003500E478FFF6D8FD9F
:100013007900E94400601B7A00900A82780175A098
:1000230000E493F2A308B8000205A0D9F4DAF2754C
:02003300A0FF2C
:10003B007800E84400600A790175A000E4F309D860
:10004B00FC7800E84400600C7900900001E4F0A318
:04005B00D8FCD9FAFA
:1002D500C0398581397E008E8312026ED039228520
:1002E500821B85831C85F01DE4F518F519F51A8523
:1002F5000A1E9002D50203BEC039E581F53924FBFB
:10030500FF8F1EE4F518F519F51AE53924FBF88673
:100315001B08861C08861D9002D51203BED0392203
:10032500AF82C00EC00FC0101203328007C00CC0D0
:100335000D8F82221581158115810516E4B51602EA
:10034500051722AF8274302FFF24C6500B74072F78
:10035500FFE50B60034307208F82020325E582FF3B
:10036500C4540FF582C007120348D007740F5FF518
:100375008202034885823AAB11AC12AD13AE14AAC2
:1003850015753C208A07EF2FF53BEE235401453BBD
:10039500FAEB2BFBEC33FCED33FDEE33FEC3EA95B4
:1003A5003A4008EAC3953AFA430301D53CD68B1186
:1003B5008C128D138E148A152285820C85830D85EA
:1003C500180E85190F851A10E4F516F517AD1BAE35
:1003D5001CAF1D8D828E838FF0120A41FC74012D96
:1003E500F51BE43EF51C8F1DECFF7003020A05BFEB
:1003F500250280030209FDE4F51FF520F521F5220C
:10040500F523F524F525F526F528F535F536752971
:10041500FF752AFF851B2F851C30851D31852F8291
:100425008530838531F0120A41F532A385822F8507
:100435008330852F1B85301C85311D7425B5320809
:10044500853282120325808574D025325068E532C5
:1004550024C6406274FFB52936B52A3385353A85F9
:10046500363B90000A120A24858233858334AA32EA
:100475007E00EA2533FAEE3534FEEA24D0F535EE72
:1004850034FFF536E53545367093752001808E8548
:10049500293A852A3B90000A120A24AE82AB83AA28
:1004A500327D00EA2EFEED3BFBEE24D0F529EB3440
:1004B500FFF52A020422742EB5321574FFB52905FD
:1004C500B52A028003020422E4F529F52A02042252
:1004D500749F2532500EE532248540085332DF756E
:1004E5000B018003750B007420B532030205887477
:1004F5002BB53203020582742DB532028079744220
:10050500B5320302058E7443B5320302059A74446D
:10051500B5320302071E7446B53203020735744827
:10052500B532030204227449B5320302071E744A28
:10053500B53203020422744CB532028052744FB5B1
:1005450032030207267450B532030206B37453B55D
:10055500320280627454B532030204227455B532F6
:100565000302072B7458B53203020730745AB532AB
:100575000302042202073A751F01020422752101B4
:100585000204227522010204227524010204227547
:100595002501020422E524600AE51E14F9891E8757
:1005A50006800BE51E24FEFB8B1E8B0187068E82C3
:1005B500120325020748E51E24FDFE8E1E8E0187C7
:1005C5000209870309870619198A118B128E138A66
:1005D500828B838EF0120A0C85822F85833074FFFF
:1005E500B52909B52A06852F2985302AE51F7037D3
:1005F500C3E52F9535E5309536502CE535C3952F58
:10060500F533E5369530F534AA33AE34153374FF3A
:10061500B533021534EA4E60087582201203258031
:10062500E7853335853436AB29AE2A8511828512A7
:10063500838513F0120A41FA8A2D6034C3E49B7452
:10064500808EF063F08095F050261BBBFF011E8560
:100655002D82C006C003120325D003D006AA11AC13
:1006650012AD130ABA00010C8A118C128D1380BBCE
:10067500E51F7003020748C3E52F9535E53095362C
:100685004003020748E535C3952FF533E536953028
:10069500F534AA33AE34153374FFB533021534EA95
:1006A5004E700302074275822012032580E4E51E81
:1006B50024FDFE8E1E8E0187020987030987061910
:1006C500198A118B128E13AE13BE800040047B4332
:1006D5008014BE600040047B50800BBE4000400487
:1006E5007B4980027B588B82C00312032575823AB1
:1006F500120325758230120325758278120325D0E1
:1007050003BB4902800BBB5002800685128212038F
:1007150062851182120362802A75230175280A8079
:1007250022752808801D75280A80187528108013E1
:10073500752601800E8532821203258006853335A4
:10074500853436E5266060E51E24FCFE8E1E8E018E
:10075500873509873609873709873819191985357E
:100765001185361285371385381475117775120A78
:100775007513808511358512368513377401253536
:10078500FAE43536FBAE378A118B128E1385358226
:100795008536838537F0120A41FEFB70030203D2CA
:1007A5008B8212032580CCE52870030203D2E52451
:1007B500602BE51E14F9891E87068E027B007D00DD
:1007C5007E008A118B128D138E14E5237064AA1195
:1007D500FBFDFE8A118B128D138E148055E5256065
:1007E50021E51E24FCFE8E1E8E0187020987030962
:1007F50087050987061919198A118B128D138E140D
:100805008030E51E24FEFE8E1E8E018703098706B5
:1008150019EEFA3395E0FDFE8B118A128D138E14B5
:10082500E523700EAA11AB12FDFE8A118B128D13F2
:100835008E14E5236023E51430E71BC3E49511FB13
:10084500E49512FCE49513FDE49514FE8B118C12CE
:100855008D138E14800375230075270179427D0061
:100865007E00751500852882C006C005C0011203EB
:1008750079D001D005D006E5277014E515C454F0EC
:10088500FCE515C4540F4204E7FB4CF7198002A799
:10089500150DBD00010EE527B40100E433F527E58C
:1008A5001145124513451470B9892E8D2B8E2CE5F3
:1008B5003545367005753501F536E520702DE51F92
:1008C5007029AA35AB36AC2B0C7E00C3EC9AEE9B97
:1008D5005015758220C003C002120325D002D00333
:1008E5001ABAFF011B80DF8A358B36E52360117547
:1008F500822D120325153574FFB535021536802E68
:10090500E52B452C6028E521601175822B12032506
:10091500153574FFB5350215368013E522600F7560
:100925008220120325153574FFB535021536E51FEE
:100935007033AD35AE368D038E041DBDFF011EC36C
:10094500E52B9BE52C9C503EE52060067B307C002A
:1009550080047B207C008B82C006C005120325D055
:1009650005D00680D1C3E52B9535E52C9536500F7E
:10097500E535C3952BF535E536952CF536800BE435
:10098500F535F53680048D358E36A92EAD2BAE2C7A
:100995008D028E041DBDFF011EEA4C6030E527B4B3
:1009A5000100E433F527700A09E7C4540FFC8C15E0
:1009B50080078704740F5CF515851582C006C00590
:1009C500C001120348D001D005D00680C3E51F70D1
:1009D500030203D2AD35AE368D038E041DBDFF0176
:1009E5001EEB4C70030203D2758220C006C00512AF
:1009F5000325D005D00680E08F821203250203D29D
:070A0500851682851783228C
:0B0A77003C4E4F20464C4F41543E00C7
:100A0C00AA82AB83120A416003A380F8C3E5829AE1
:100A1C00F582E5839BF58322E582853AF0A4C582B5
:100A2C00C0F0853BF0A4D0F025F0C583853AF0A446
:050A3C002583F5832273
:0D000600758142120A5DE58260030200036D
:100A410020F71430F6148883A88220F507E6A883DE
:100A510075830022E280F7E49322E022758200226E
:00000001FF
