:03000000020006F5
:03005F0002000399
:03000300020140B7
:20006200AF82D29090000AC00712017EC29090000A12017ED007EF700122EF24EF403B7D29
:20008200007E008F037C00C3ED9BEE64808CF063F08095F0400122D2939000C8C007C00634
:2000A200C00512017EC2939000C812017ED005D006D0070DBD00CC0E80C97D007E008F03AE
:2000C2007C007420C39BFBE49CFCC3ED9BEE64808CF063F08095F05023D2919000C8C00753
:2000E200C006C00512017EC2919000C812017ED005D006D0070DBD00C50E80C22220923D34
:2001020090001412017E2092343092FDE580541F641FFF24E040268F057E00C007C005C0E1
:2001220006741AC0E0740AC0E07480C0E01202B6E58124FBF581D0078F8202006222120191
:0C0142007212023D1201991200FF80FBB6
:160A1A0050726F6772616D2025642073656C6563746564210A00B1
:20014E00758D00758B00D28EAF8D7E00AC8B7D00EC2EFEED3FFFC3EE9480EF648094BE4054
:20016E00E7C28E22438E1053890F438910C28E22AE82AF83EE4F6012C007C00612014ED02F
:0B018E0006D0071EBEFF011F80EA2202
:2001990043C42053C4F885C4C4539CFD75C6FF75C5CC43C40853877FD28653B1BF43B2401F
:2001B900D28753B17F53B27F5387BFC29FD29ED29C22858299758202120219E58260F675D4
:2001D9008202020213AD82AE83AFF08D828E838FF01209FAFC60188C820DBD00010EC00796
:2001F900C006C0051201CBD005D006D00780DC2285998222D2AC22C2AC22E582F452982224
:20021900E58255986004758201227582002285820885830990000875F0401201DE8508827D
:04023900850983228E
:20023D0053B3DF43B420C29553B3FE43B401C29053B3F743B408C29353B3FD43B402C29160
:20025D0053B1FE43B2FED28053B1FD43B2FDD28153B1FB43B2FBD28253B1F743B2F7D28375
:11027D0053B1EF43B2EFD28453B3FB43B4FBD29222CA
:06003500E478FFF6D8FD9F
:200013007900E94400601B7A00900A3B780175A000E493F2A308B8000205A0D9F4DAF2754E
:02003300A0FF2C
:20003B007800E84400600A790175A000E4F309D8FC7800E84400600C7900900001E4F0A3C3
:04005B00D8FCD9FAFA
:20028E00C0398581397E008E83120227D0392285821B85831C85F01DE4F518F519F51A85B8
:2002AE000A1E90028E020377C039E581F53924FBFF8F1EE4F518F519F51AE53924FBF8864B
:1002CE001B08861C08861D90028E120377D03922D9
:2002DE00AF82C00EC00FC0101202EB8007C00CC00D8F82221581158115810516E4B5160282
:2002FE00051722AF8274302FFF24C6500B74072FFFE50B60034307208F820202DEE582FF9B
:20031E00C4540FF582C007120301D007740F5FF58202030185823AAB11AC12AD13AE14AA27
:20033E0015753C208A07EF2FF53BEE235401453BFAEB2BFBEC33FCED33FDEE33FEC3EA9550
:20035E003A4008EAC3953AFA430301D53CD68B118C128D138E148A152285820C85830D856F
:20037E00180E85190F851A10E4F516F517AD1BAE1CAF1D8D828E838FF01209FAFC74012D32
:20039E00F51BE43EF51C8F1DECFF70030209BEBF250280030209B6E4F51FF520F521F522C5
:2003BE00F523F524F525F526F528F535F5367529FF752AFF851B2F851C30851D31852F8263
:2003DE008530838531F01209FAF532A385822F858330852F1B85301C85311D7425B53208D9
:2003FE008532821202DE808574D025325068E53224C6406274FFB52936B52A3385353A85A7
:20041E00363B90000A1209DD858233858334AA327E00EA2533FAEE3534FEEA24D0F535EE64
:20043E0034FFF536E53545367093752001808E85293A852A3B90000A1209DDAE82AB83AA98
:20045E00327D00EA2EFEED3BFBEE24D0F529EB34FFF52A0203DB742EB5321574FFB5290585
:20047E00B52A0280030203DBE4F529F52A0203DB749F2532500EE532248540085332DF7570
:20049E000B018003750B007420B53203020541742BB5320302053B742DB532028079744265
:2004BE00B532030205477443B532030205537444B532030206D77446B532030206EE744814
:2004DE00B532030203DB7449B532030206D7744AB532030203DB744CB532028052744FB533
:2004FE0032030206DF7450B5320302066C7453B5320280627454B532030203DB7455B532CC
:20051E00030206E47458B532030206E9745AB532030203DB0206F3751F010203DB75210188
:20053E000203DB7522010203DB7524010203DB7525010203DBE524600AE51E14F9891E879F
:20055E0006800BE51E24FEFB8B1E8B0187068E821202DE020701E51E24FDFE8E1E8E01871A
:20057E000209870309870619198A118B128E138A828B838EF01209C585822F85833074FFCE
:20059E00B52909B52A06852F2985302AE51F7037C3E52F9535E5309536502CE535C3952F6C
:2005BE00F533E5369530F534AA33AE34153374FFB533021534EA4E60087582201202DE8016
:2005DE00E7853335853436AB29AE2A8511828512838513F01209FAFA8A2D6034C3E49B74C4
:2005FE00808EF063F08095F050261BBBFF011E852D82C006C0031202DED003D006AA11AC5E
:20061E0012AD130ABA00010C8A118C128D1380BBE51F7003020701C3E52F9535E530953603
:20063E004003020701E535C3952FF533E5369530F534AA33AE34153374FFB533021534EAE6
:20065E004E70030206FB7582201202DE80E4E51E24FDFE8E1E8E0187020987030987061923
:20067E00198A118B128E13AE13BE800040047B438014BE600040047B50800BBE40004004DB
:20069E007B4980027B588B82C0031202DE75823A1202DE7582301202DE7582781202DED0F4
:2006BE0003BB4902800BBB5002800685128212031B85118212031B802A75230175280A80FA
:2006DE0022752808801D75280A80187528108013752601800E8532821202DE800685333551
:2006FE00853436E5266060E51E24FCFE8E1E8E0187350987360987370987381919198535B0
:20071E001185361285371385381475113075120A75138085113585123685133774012535B8
:20073E00FAE43536FBAE378A118B128E138535828536838537F01209FAFEFB700302038B62
:20075E008B821202DE80CCE528700302038BE524602BE51E14F9891E87068E027B007D00C0
:20077E007E008A118B128D138E14E5237064AA11FBFDFE8A118B128D138E148055E525601D
:20079E0021E51E24FCFE8E1E8E0187020987030987050987061919198A118B128D138E14B2
:2007BE008030E51E24FEFE8E1E8E01870309870619EEFA3395E0FDFE8B118A128D138E14CF
:2007DE00E523700EAA11AB12FDFE8A118B128D138E14E5236023E51430E71BC3E49511FB8A
:2007FE00E49512FCE49513FDE49514FE8B118C128D138E14800375230075270179427D00D4
:20081E007E00751500852882C006C005C001120332D001D005D006E5277014E515C454F0E2
:20083E00FCE515C4540F4204E7FB4CF7198002A7150DBD00010EE527B40100E433F527E509
:20085E001145124513451470B9892E8D2B8E2CE53545367005753501F536E520702DE51F89
:20087E007029AA35AB36AC2B0C7E00C3EC9AEE9B5015758220C003C0021202DED002D00336
:20089E001ABAFF011B80DF8A358B36E523601175822D1202DE153574FFB535021536802E3B
:2008BE00E52B452C6028E521601175822B1202DE153574FFB5350215368013E522600F7514
:2008DE0082201202DE153574FFB535021536E51F7033AD35AE368D038E041DBDFF011EC328
:2008FE00E52B9BE52C9C503EE52060067B307C0080047B207C008B82C006C0051202DED06D
:20091E0005D00680D1C3E52B9535E52C9536500FE535C3952BF535E536952CF536800BE478
:20093E00F535F53680048D358E36A92EAD2BAE2C8D028E041DBDFF011EEA4C6030E527B412
:20095E000100E433F527700A09E7C4540FFC8C1580078704740F5CF515851582C006C00575
:20097E00C001120301D001D005D00680C3E51F700302038BAD35AE368D038E041DBDFF01FA
:20099E001EEB4C700302038B758220C006C0051202DED005D00680E08F821202DE02038BAF
:0709BE0085168285178322D4
:0B0A30003C4E4F20464C4F41543E000E
:1809C500AA82AB831209FA6003A380F8C3E5829AF582E5839BF5832255
:1D09DD00E582853AF0A4C582C0F0853BF0A4D0F025F0C583853AF0A42583F5832246
:0D000600758142120A16E5826003020003B4
:1C09FA0020F71430F6148883A88220F507E6A88375830022E280F7E49322E0220C
:040A160075820022C3
:00000001FF
