:03000000020006F5
:03005F0002000399
:030003000200DD1B
:10006200AF82D29090000AC00712011BC29090008A
:100072000A12011BD007EF603A7D007E008F037CDD
:1000820000C3ED9BEE64808CF063F08095F050230A
:10009200D2909000C8C007C006C00512011BC290D2
:1000A2009000C812011BD005D006D0070DBD00CDAF
:1000B2000E80CA222092233092FDE580541FFF7EDB
:1000C20000C007C00674AFC0E07409C0E07480C00D
:1000D200E012024BE58124FBF5812212010F12018D
:0900E200DA1201361200B680FBAF
:1009AF00506F72742076616C75653A2025640A0069
:1000EB00758D00758B00D28EAF8D7E00AC8B7D0035
:1000FB00EC2EFEED3FFFC3EE9480EF648094BE4088
:10010B00E7C28E22438E1053890F438910C28E2271
:10011B00AE82AF83EE4F6012C007C0061200EBD069
:10012B0006D0071EBEFF011F80EA2243C42053C422
:10013B00F885C4C4539CFD75C6FF75C5CC43C40874
:10014B0053877FD28653B1BF43B240D28753B17F1F
:10015B0053B27F5387BFC29FD29ED29C2285829976
:10016B007582021201B6E58260F67582020201B059
:10017B00AD82AE83AFF08D828E838FF012098FFC30
:10018B0060188C820DBD00010EC007C006C00512A1
:10019B000168D005D006D00780DC2285998222D257
:1001AB00AC22C2AC22E582F4529822E582559860CB
:1001BB00047582012275820022858208858309904D
:1001CB00000875F04012017B850882850983225354
:1001DB00B3DF43B420C29553B3FE43B401C2905373
:1001EB00B3FD43B402C29153B1FE43B2FEC280537E
:1001FB00B1FD43B2FDC28153B1FB43B2FBC282538B
:10020B00B1F743B2F7C28353B1EF43B2EFD284538A
:08021B00B3FB43B4FBD29222B5
:06003500E478FFF6D8FD9F
:100013007900E94400601B7A009009CA780175A051
:1000230000E493F2A308B8000205A0D9F4DAF2754C
:02003300A0FF2C
:10003B007800E84400600A790175A000E4F309D860
:10004B00FC7800E84400600C7900900001E4F0A318
:04005B00D8FCD9FAFA
:10022300C0398581397E008E831201C4D03922857D
:10023300821B85831C85F01DE4F518F519F51A85D5
:100243000A1E90022302030CC039E581F53924FB11
:10025300FF8F1EE4F518F519F51AE53924FBF88626
:100263001B08861C08861D90022312030CD039221A
:10027300AF82C00EC00FC0101202808007C00CC036
:100283000D8F82221581158115810516E4B516029D
:10029300051722AF8274302FFF24C6500B74072F2B
:1002A300FFE50B60034307208F82020273E582FFA1
:1002B300C4540FF582C007120296D007740F5FF57E
:1002C3008202029685823AAB11AC12AD13AE14AA28
:1002D30015753C208A07EF2FF53BEE235401453B70
:1002E300FAEB2BFBEC33FCED33FDEE33FEC3EA9567
:1002F3003A4008EAC3953AFA430301D53CD68B1139
:100303008C128D138E148A152285820C85830D859C
:10031300180E85190F851A10E4F516F517AD1BAEE7
:100323001CAF1D8D828E838FF012098FFC74012DFB
:10033300F51BE43EF51C8F1DECFF7003020953BF50
:100343002502800302094BE4F51FF520F521F52270
:10035300F523F524F525F526F528F535F536752924
:10036300FF752AFF851B2F851C30851D31852F8244
:100373008530838531F012098FF532A385822F856D
:100383008330852F1B85301C85311D7425B53208BC
:10039300853282120273808574D025325068E5322B
:1003A30024C6406274FFB52936B52A3385353A85AC
:1003B300363B90000A120972858233858334AA3250
:1003C3007E00EA2533FAEE3534FEEA24D0F535EE25
:1003D30034FFF536E53545367093752001808E85FB
:1003E300293A852A3B90000A120972AE82AB83AA8E
:1003F300327D00EA2EFEED3BFBEE24D0F529EB34F3
:10040300FFF52A020370742EB5321574FFB5290562
:10041300B52A028003020370E4F529F52A0203706A
:10042300749F2532500EE532248540085332DF7520
:100433000B018003750B007420B532030204D674DC
:100443002BB532030204D0742DB532028079744285
:10045300B532030204DC7443B532030204E8744486
:10046300B5320302066C7446B53203020683744840
:10047300B532030203707449B5320302066C744A41
:10048300B53203020370744CB532028052744FB517
:1004930032030206747450B532030206017453B575
:1004A300320280627454B532030203707455B5325C
:1004B300030206797458B5320302067E745AB532C4
:1004C30003020370020688751F0102037075210180
:1004D3000203707522010203707524010203707513
:1004E3002501020370E524600AE51E14F9891E87BD
:1004F30006800BE51E24FEFB8B1E8B0187068E8276
:10050300120273020696E51E24FDFE8E1E8E0187DF
:100513000209870309870619198A118B128E138A18
:10052300828B838EF012095A85822F85833074FF64
:10053300B52909B52A06852F2985302AE51F703785
:10054300C3E52F9535E5309536502CE535C3952F0A
:10055300F533E5369530F534AA33AE34153374FFED
:10056300B533021534EA4E60087582201202738097
:10057300E7853335853436AB29AE2A85118285125A
:10058300838513F012098FFA8A2D6034C3E49B74B8
:10059300808EF063F08095F050261BBBFF011E8513
:1005A3002D82C006C003120273D003D006AA11AC79
:1005B30012AD130ABA00010C8A118C128D1380BB81
:1005C300E51F7003020696C3E52F9535E530953692
:1005D3004003020696E535C3952FF533E53695308E
:1005E300F534AA33AE34153374FFB533021534EA48
:1005F3004E700302069075822012027380E4E51E9A
:1006030024FDFE8E1E8E01870209870309870619C2
:10061300198A118B128E13AE13BE800040047B43E4
:100623008014BE600040047B50800BBE4000400439
:100633007B4980027B588B82C00312027375823A16
:10064300120273758230120273758278120273D0AC
:1006530003BB4902800BBB50028006851282120243
:10066300B08511821202B0802A75230175280A8091
:1006730022752808801D75280A8018752810801394
:10068300752601800E85328212027380068533350A
:10069300853436E5266060E51E24FCFE8E1E8E0141
:1006A3008735098736098737098738191919853531
:1006B300118536128537138538147511BF751209E4
:1006C30075138085113585123685133774012535E9
:1006D300FAE43536FBAE378A118B128E13853582D9
:1006E3008536838537F012098FFEFB7003020320E2
:1006F3008B8212027380CCE5287003020320E52469
:10070300602BE51E14F9891E87068E027B007D008F
:100713007E008A118B128D138E14E5237064AA1147
:10072300FBFDFE8A118B128D138E148055E5256017
:1007330021E51E24FCFE8E1E8E0187020987030914
:1007430087050987061919198A118B128D138E14BF
:100753008030E51E24FEFE8E1E8E01870309870668
:1007630019EEFA3395E0FDFE8B118A128D138E1468
:10077300E523700EAA11AB12FDFE8A118B128D13A5
:100783008E14E5236023E51430E71BC3E49511FBC6
:10079300E49512FCE49513FDE49514FE8B118C1281
:1007A3008D138E14800375230075270179427D0014
:1007B3007E00751500852882C006C005C00112029F
:1007C300C7D001D005D006E5277014E515C454F051
:1007D300FCE515C4540F4204E7FB4CF7198002A74C
:1007E300150DBD00010EE527B40100E433F527E53F
:1007F3001145124513451470B9892E8D2B8E2CE5A6
:100803003545367005753501F536E520702DE51F44
:100813007029AA35AB36AC2B0C7E00C3EC9AEE9B49
:100823005015758220C003C002120273D002D00398
:100833001ABAFF011B80DF8A358B36E523601175F9
:10084300822D120273153574FFB535021536802ECD
:10085300E52B452C6028E521601175822B1202736C
:10086300153574FFB5350215368013E522600F7513
:100873008220120273153574FFB535021536E51F54
:100883007033AD35AE368D038E041DBDFF011EC31F
:10089300E52B9BE52C9C503EE52060067B307C00DD
:1008A30080047B207C008B82C006C005120273D0BB
:1008B30005D00680D1C3E52B9535E52C9536500F31
:1008C300E535C3952BF535E536952CF536800BE4E8
:1008D300F535F53680048D358E36A92EAD2BAE2C2D
:1008E3008D028E041DBDFF011EEA4C6030E527B466
:1008F3000100E433F527700A09E7C4540FFC8C1593
:1009030080078704740F5CF515851582C006C00542
:10091300C001120296D001D005D00680C3E51F7036
:1009230003020320AD35AE368D038E041DBDFF01DA
:100933001EEB4C7003020320758220C006C0051213
:100943000273D005D00680E08F8212027302032067
:07095300851682851783223F
:0B09BF003C4E4F20464C4F41543E0080
:10095A00AA82AB8312098F6003A380F8C3E5829A47
:10096A00F582E5839BF58322E582853AF0A4C58268
:10097A00C0F0853BF0A4D0F025F0C583853AF0A4F9
:05098A002583F5832226
:0D0006007581421209ABE582600302000320
:10098F0020F71430F6148883A88220F507E6A88391
:10099F0075830022E280F7E49322E0227582002221
:00000001FF
