:03000000020006F5
:03005F0002000399
:030003000200DA1E
:10006200AF82D29090000AC007120125C290900080
:100072000A120125D007EF603A7D007E008F037CD3
:1000820000C3ED9BEE64808CF063F08095F050230A
:10009200D2909000C8C007C006C005120125C290C8
:1000A2009000C8120125D005D006D0070DBD00CDA5
:1000B2000E80CA222085203085FDAF807E00C007D9
:1000C200C00674B9C0E07409C0E07480C0E01202D6
:1000D20055E58124FBF581221201191201E4120176
:1000E20040D295900064120125C2959000641201DD
:0300F2002580EE78
:1009B900506F72742076616C75653A2025640A005F
:1000F500758D00758B00D28EAF8D7E00AC8B7D002B
:10010500EC2EFEED3FFFC3EE9480EF648094BE407D
:10011500E7C28E22438E1053890F438910C28E2267
:10012500AE82AF83EE4F6012C007C0061200F5D055
:1001350006D0071EBEFF011F80EA2243C42053C418
:10014500F885C4C4539CFD75C6FF75C5CC43C4086A
:1001550053877FD28653B1BF43B240D28753B17F15
:1001650053B27F5387BFC29FD29ED29C228582996C
:100175007582021201C0E58260F67582020201BA3B
:10018500AD82AE83AFF08D828E838FF0120999FC1C
:1001950060188C820DBD00010EC007C006C0051297
:1001A5000172D005D006D00780DC2285998222D243
:1001B500AC22C2AC22E582F4529822E582559860C1
:1001C5000475820122758200228582088583099043
:1001D500000875F040120185850882850983225340
:1001E500B3DF43B420C29553B3FE43B401C2905369
:1001F500B3FD43B402C29153B1FE43B2FED2805364
:10020500B1FD43B2FDD28153B1FB43B2FBD2825360
:10021500B1F743B2F7D28353B1EF43B2EFD2845370
:08022500B1DF43B2DFD28522F4
:06003500E478FFF6D8FD9F
:100013007900E94400601B7A009009D4780175A047
:1000230000E493F2A308B8000205A0D9F4DAF2754C
:02003300A0FF2C
:10003B007800E84400600A790175A000E4F309D860
:10004B00FC7800E84400600C7900900001E4F0A318
:04005B00D8FCD9FAFA
:10022D00C0398581397E008E831201CED039228569
:10023D00821B85831C85F01DE4F518F519F51A85CB
:10024D000A1E90022D020316C039E581F53924FBF3
:10025D00FF8F1EE4F518F519F51AE53924FBF8861C
:10026D001B08861C08861D90022D120316D03922FC
:10027D00AF82C00EC00FC01012028A8007C00CC022
:10028D000D8F82221581158115810516E4B5160293
:10029D00051722AF8274302FFF24C6500B74072F21
:1002AD00FFE50B60034307208F8202027DE582FF8D
:1002BD00C4540FF582C0071202A0D007740F5FF56A
:1002CD00820202A085823AAB11AC12AD13AE14AA14
:1002DD0015753C208A07EF2FF53BEE235401453B66
:1002ED00FAEB2BFBEC33FCED33FDEE33FEC3EA955D
:1002FD003A4008EAC3953AFA430301D53CD68B112F
:10030D008C128D138E148A152285820C85830D8592
:10031D00180E85190F851A10E4F516F517AD1BAEDD
:10032D001CAF1D8D828E838FF0120999FC74012DE7
:10033D00F51BE43EF51C8F1DECFF700302095DBF3C
:10034D0025028003020955E4F51FF520F521F5225C
:10035D00F523F524F525F526F528F535F53675291A
:10036D00FF752AFF851B2F851C30851D31852F823A
:10037D008530838531F0120999F532A385822F8559
:10038D008330852F1B85301C85311D7425B53208B2
:10039D0085328212027D808574D025325068E53217
:1003AD0024C6406274FFB52936B52A3385353A85A2
:1003BD00363B90000A12097C858233858334AA323C
:1003CD007E00EA2533FAEE3534FEEA24D0F535EE1B
:1003DD0034FFF536E53545367093752001808E85F1
:1003ED00293A852A3B90000A12097CAE82AB83AA7A
:1003FD00327D00EA2EFEED3BFBEE24D0F529EB34E9
:10040D00FFF52A02037A742EB5321574FFB529054E
:10041D00B52A02800302037AE4F529F52A02037A4C
:10042D00749F2532500EE532248540085332DF7516
:10043D000B018003750B007420B532030204E074C8
:10044D002BB532030204DA742DB532028079744271
:10045D00B532030204E67443B532030204F2744468
:10046D00B532030206767446B5320302068D744822
:10047D00B5320302037A7449B53203020676744A23
:10048D00B5320302037A744CB532028052744FB503
:10049D00320302067E7450B5320302060B7453B557
:1004AD00320280627454B5320302037A7455B53248
:1004BD00030206837458B53203020688745AB532A6
:1004CD000302037A020692751F0102037A75210158
:1004DD0002037A75220102037A75240102037A75EB
:1004ED00250102037AE524600AE51E14F9891E87A9
:1004FD0006800BE51E24FEFB8B1E8B0187068E826C
:10050D0012027D0206A0E51E24FDFE8E1E8E0187C1
:10051D000209870309870619198A118B128E138A0E
:10052D00828B838EF012096485822F85833074FF50
:10053D00B52909B52A06852F2985302AE51F70377B
:10054D00C3E52F9535E5309536502CE535C3952F00
:10055D00F533E5369530F534AA33AE34153374FFE3
:10056D00B533021534EA4E600875822012027D8083
:10057D00E7853335853436AB29AE2A851182851250
:10058D00838513F0120999FA8A2D6034C3E49B74A4
:10059D00808EF063F08095F050261BBBFF011E8509
:1005AD002D82C006C00312027DD003D006AA11AC65
:1005BD0012AD130ABA00010C8A118C128D1380BB77
:1005CD00E51F70030206A0C3E52F9535E53095367E
:1005DD0040030206A0E535C3952FF533E53695307A
:1005ED00F534AA33AE34153374FFB533021534EA3E
:1005FD004E700302069A75822012027D80E4E51E7C
:10060D0024FDFE8E1E8E01870209870309870619B8
:10061D00198A118B128E13AE13BE800040047B43DA
:10062D008014BE600040047B50800BBE400040042F
:10063D007B4980027B588B82C00312027D75823A02
:10064D0012027D75823012027D75827812027DD084
:10065D0003BB4902800BBB50028006851282120239
:10066D00BA8511821202BA802A75230175280A8073
:10067D0022752808801D75280A801875281080138A
:10068D00752601800E85328212027D8006853335F6
:10069D00853436E5266060E51E24FCFE8E1E8E0137
:1006AD008735098736098737098738191919853527
:1006BD00118536128537138538147511C9751209D0
:1006CD0075138085113585123685133774012535DF
:1006DD00FAE43536FBAE378A118B128E13853582CF
:1006ED008536838537F0120999FEFB700302032AC4
:1006FD008B8212027D80CCE528700302032AE5244B
:10070D00602BE51E14F9891E87068E027B007D0085
:10071D007E008A118B128D138E14E5237064AA113D
:10072D00FBFDFE8A118B128D138E148055E525600D
:10073D0021E51E24FCFE8E1E8E018702098703090A
:10074D0087050987061919198A118B128D138E14B5
:10075D008030E51E24FEFE8E1E8E0187030987065E
:10076D0019EEFA3395E0FDFE8B118A128D138E145E
:10077D00E523700EAA11AB12FDFE8A118B128D139B
:10078D008E14E5236023E51430E71BC3E49511FBBC
:10079D00E49512FCE49513FDE49514FE8B118C1277
:1007AD008D138E14800375230075270179427D000A
:1007BD007E00751500852882C006C005C001120295
:1007CD00D1D001D005D006E5277014E515C454F03D
:1007DD00FCE515C4540F4204E7FB4CF7198002A742
:1007ED00150DBD00010EE527B40100E433F527E535
:1007FD001145124513451470B9892E8D2B8E2CE59C
:10080D003545367005753501F536E520702DE51F3A
:10081D007029AA35AB36AC2B0C7E00C3EC9AEE9B3F
:10082D005015758220C003C00212027DD002D00384
:10083D001ABAFF011B80DF8A358B36E523601175EF
:10084D00822D12027D153574FFB535021536802EB9
:10085D00E52B452C6028E521601175822B12027D58
:10086D00153574FFB5350215368013E522600F7509
:10087D00822012027D153574FFB535021536E51F40
:10088D007033AD35AE368D038E041DBDFF011EC315
:10089D00E52B9BE52C9C503EE52060067B307C00D3
:1008AD0080047B207C008B82C006C00512027DD0A7
:1008BD0005D00680D1C3E52B9535E52C9536500F27
:1008CD00E535C3952BF535E536952CF536800BE4DE
:1008DD00F535F53680048D358E36A92EAD2BAE2C23
:1008ED008D028E041DBDFF011EEA4C6030E527B45C
:1008FD000100E433F527700A09E7C4540FFC8C1589
:10090D0080078704740F5CF515851582C006C00538
:10091D00C0011202A0D001D005D00680C3E51F7022
:10092D000302032AAD35AE368D038E041DBDFF01C6
:10093D001EEB4C700302032A758220C006C00512FF
:10094D00027DD005D00680E08F8212027D02032A3F
:07095D008516828517832235
:0B09C9003C4E4F20464C4F41543E0076
:10096400AA82AB831209996003A380F8C3E5829A33
:10097400F582E5839BF58322E582853AF0A4C5825E
:10098400C0F0853BF0A4D0F025F0C583853AF0A4EF
:050994002583F583221C
:0D0006007581421209B5E582600302000316
:1009990020F71430F6148883A88220F507E6A88387
:1009A90075830022E280F7E49322E0227582002217
:00000001FF
